{
  "contractName": "Faucet",
  "abi": [
    {
      "inputs": [],
      "name": "numOfFunders",
      "outputs": [
        {
          "internalType": "uint256",
          "name": "",
          "type": "uint256"
        }
      ],
      "stateMutability": "view",
      "type": "function",
      "constant": true
    },
    {
      "inputs": [],
      "name": "owner",
      "outputs": [
        {
          "internalType": "address",
          "name": "",
          "type": "address"
        }
      ],
      "stateMutability": "view",
      "type": "function",
      "constant": true
    },
    {
      "inputs": [],
      "name": "test5",
      "outputs": [
        {
          "internalType": "uint256",
          "name": "",
          "type": "uint256"
        }
      ],
      "stateMutability": "pure",
      "type": "function",
      "constant": true
    },
    {
      "inputs": [],
      "name": "testNum",
      "outputs": [
        {
          "internalType": "uint256",
          "name": "",
          "type": "uint256"
        }
      ],
      "stateMutability": "view",
      "type": "function",
      "constant": true
    },
    {
      "stateMutability": "payable",
      "type": "receive",
      "payable": true
    },
    {
      "inputs": [],
      "name": "emitLog",
      "outputs": [
        {
          "internalType": "bytes32",
          "name": "",
          "type": "bytes32"
        }
      ],
      "stateMutability": "pure",
      "type": "function",
      "constant": true
    },
    {
      "inputs": [],
      "name": "addFunds",
      "outputs": [],
      "stateMutability": "payable",
      "type": "function",
      "payable": true
    },
    {
      "inputs": [],
      "name": "test1",
      "outputs": [],
      "stateMutability": "nonpayable",
      "type": "function"
    },
    {
      "inputs": [],
      "name": "test2",
      "outputs": [],
      "stateMutability": "nonpayable",
      "type": "function"
    },
    {
      "inputs": [
        {
          "internalType": "uint256",
          "name": "withdrawAmount",
          "type": "uint256"
        }
      ],
      "name": "withdraw",
      "outputs": [],
      "stateMutability": "nonpayable",
      "type": "function"
    },
    {
      "inputs": [],
      "name": "getAllFunders",
      "outputs": [
        {
          "internalType": "address[]",
          "name": "",
          "type": "address[]"
        }
      ],
      "stateMutability": "view",
      "type": "function",
      "constant": true
    },
    {
      "inputs": [
        {
          "internalType": "uint8",
          "name": "index",
          "type": "uint8"
        }
      ],
      "name": "getFunderAtIndex",
      "outputs": [
        {
          "internalType": "address",
          "name": "",
          "type": "address"
        }
      ],
      "stateMutability": "view",
      "type": "function",
      "constant": true
    }
  ],
  "bytecode": "0x608060405234801561001057600080fd5b50336000806101000a81548173ffffffffffffffffffffffffffffffffffffffff021916908373ffffffffffffffffffffffffffffffffffffffff1602179055506103e8600181905550610bc0806100696000396000f3fe6080604052600436106100a05760003560e01c80636fbbb55d116100645780636fbbb55d1461016b5780638da5cb5b14610196578063a26759cb146101c1578063ae28f1ed146101cb578063af7f2c9b146101f6578063f42c13bf14610221576100a7565b80630a93cf33146100ac5780631ad7be82146100e95780632e1a7d4d1461011457806366e41cb71461013d5780636b59084d14610154576100a7565b366100a757005b600080fd5b3480156100b857600080fd5b506100d360048036038101906100ce91906107d5565b61024c565b6040516100e091906108f6565b60405180910390f35b3480156100f557600080fd5b506100fe61028c565b60405161010b919061098e565b60405180910390f35b34801561012057600080fd5b5061013b600480360381019061013691906107ac565b61029e565b005b34801561014957600080fd5b50610152610335565b005b34801561016057600080fd5b506101696103c5565b005b34801561017757600080fd5b50610180610455565b60405161018d9190610911565b60405180910390f35b3480156101a257600080fd5b506101ab61059b565b6040516101b891906108f6565b60405180910390f35b6101c96105bf565b005b3480156101d757600080fd5b506101e0610745565b6040516101ed919061098e565b60405180910390f35b34801561020257600080fd5b5061020b61074b565b604051610218919061098e565b60405180910390f35b34801561022d57600080fd5b50610236610751565b6040516102439190610933565b60405180910390f35b6000600460008360ff16815260200190815260200160002060009054906101000a900473ffffffffffffffffffffffffffffffffffffffff169050919050565b6000610296610779565b50600a905090565b8067016345785d8a00008111156102ea576040517f08c379a00000000000000000000000000000000000000000000000000000000081526004016102e19061096e565b60405180910390fd5b3373ffffffffffffffffffffffffffffffffffffffff166108fc839081150290604051600060405180830381858888f19350505050158015610330573d6000803e3d6000fd5b505050565b60008054906101000a900473ffffffffffffffffffffffffffffffffffffffff1673ffffffffffffffffffffffffffffffffffffffff163373ffffffffffffffffffffffffffffffffffffffff16146103c3576040517f08c379a00000000000000000000000000000000000000000000000000000000081526004016103ba9061094e565b60405180910390fd5b565b60008054906101000a900473ffffffffffffffffffffffffffffffffffffffff1673ffffffffffffffffffffffffffffffffffffffff163373ffffffffffffffffffffffffffffffffffffffff1614610453576040517f08c379a000000000000000000000000000000000000000000000000000000000815260040161044a9061094e565b60405180910390fd5b565b6060600060025467ffffffffffffffff81111561049b577f4e487b7100000000000000000000000000000000000000000000000000000000600052604160045260246000fd5b6040519080825280602002602001820160405280156104c95781602001602082028036833780820191505090505b50905060005b600254811015610593576004600082815260200190815260200160002060009054906101000a900473ffffffffffffffffffffffffffffffffffffffff16828281518110610546577f4e487b7100000000000000000000000000000000000000000000000000000000600052603260045260246000fd5b602002602001019073ffffffffffffffffffffffffffffffffffffffff16908173ffffffffffffffffffffffffffffffffffffffff1681525050808061058b90610a46565b9150506104cf565b508091505090565b60008054906101000a900473ffffffffffffffffffffffffffffffffffffffff1681565b60003390506105cc610779565b50600360008273ffffffffffffffffffffffffffffffffffffffff1673ffffffffffffffffffffffffffffffffffffffff16815260200190815260200160002060009054906101000a900460ff166106e95760006002600081548092919061063390610a46565b9190505590506001600360008473ffffffffffffffffffffffffffffffffffffffff1673ffffffffffffffffffffffffffffffffffffffff16815260200190815260200160002060006101000a81548160ff021916908315150217905550816004600083815260200190815260200160002060006101000a81548173ffffffffffffffffffffffffffffffffffffffff021916908373ffffffffffffffffffffffffffffffffffffffff16021790555050610742565b6000600360008373ffffffffffffffffffffffffffffffffffffffff1673ffffffffffffffffffffffffffffffffffffffff16815260200190815260200160002060006101000a81548160ff0219169083151502179055505b50565b60015481565b60025481565b60007f5465737420546573740000000000000000000000000000000000000000000000905090565b60006064905090565b60008135905061079181610b5c565b92915050565b6000813590506107a681610b73565b92915050565b6000602082840312156107be57600080fd5b60006107cc84828501610782565b91505092915050565b6000602082840312156107e757600080fd5b60006107f584828501610797565b91505092915050565b600061080a8383610816565b60208301905092915050565b61081f816109f3565b82525050565b61082e816109f3565b82525050565b600061083f826109b9565b61084981856109d1565b9350610854836109a9565b8060005b8381101561088557815161086c88826107fe565b9750610877836109c4565b925050600181019050610858565b5085935050505092915050565b61089b81610a05565b82525050565b60006108ae6021836109e2565b91506108b982610abe565b604082019050919050565b60006108d16023836109e2565b91506108dc82610b0d565b604082019050919050565b6108f081610a2f565b82525050565b600060208201905061090b6000830184610825565b92915050565b6000602082019050818103600083015261092b8184610834565b905092915050565b60006020820190506109486000830184610892565b92915050565b60006020820190508181036000830152610967816108a1565b9050919050565b60006020820190508181036000830152610987816108c4565b9050919050565b60006020820190506109a360008301846108e7565b92915050565b6000819050602082019050919050565b600081519050919050565b6000602082019050919050565b600082825260208201905092915050565b600082825260208201905092915050565b60006109fe82610a0f565b9050919050565b6000819050919050565b600073ffffffffffffffffffffffffffffffffffffffff82169050919050565b6000819050919050565b600060ff82169050919050565b6000610a5182610a2f565b91507fffffffffffffffffffffffffffffffffffffffffffffffffffffffffffffffff821415610a8457610a83610a8f565b5b600182019050919050565b7f4e487b7100000000000000000000000000000000000000000000000000000000600052601160045260246000fd5b7f4f6e6c79206f776e65722063616e2063616c6c20746869732066756e6374696f60008201527f6e00000000000000000000000000000000000000000000000000000000000000602082015250565b7f43616e6e6f74207769746864726177206d6f7265207468616e20302e3120657460008201527f6865720000000000000000000000000000000000000000000000000000000000602082015250565b610b6581610a2f565b8114610b7057600080fd5b50565b610b7c81610a39565b8114610b8757600080fd5b5056fea264697066735822122067eab44461d47b5a92299b7d412d13bbc55b40e1a543f855b890a787dd7785cc64736f6c63430008040033",
  "immutableReferences": {},
  "source": "// SPDX-License-Identifier: MIT\r\npragma solidity >=0.4.22 <0.9.0;\r\n\r\nimport \"./Owned.sol\";\r\nimport \"./Logger.sol\";\r\nimport \"./IFaucet.sol\";\r\n\r\ncontract Faucet is Owned, Logger, IFaucet { \r\n\r\n    // address[] public funders;\r\n    uint public numOfFunders;\r\n    //mapping(uint => address) private funders;\r\n\r\n    mapping(address => bool) private funders;\r\n    mapping(uint => address) private lutFunders;\r\n\r\n    // address public owner;\r\n\r\n    // constructor() {\r\n    //     owner = msg.sender;\r\n    // }\r\n \r\n    // modifier onlyOwner {\r\n    //     require(\r\n    //         msg.sender == owner,\r\n    //         \"Only owner can call this function\"\r\n    //     );\r\n    //     _;\r\n    // }\r\n\r\n    modifier limitWithdraw(uint withdrawAmount) {\r\n        require(\r\n            withdrawAmount <=100000000000000000, \r\n            \"Cannot withdraw more than 0.1 ether\"\r\n            );\r\n            _;\r\n    }\r\n\r\n    receive() external payable {}\r\n\r\n    function emitLog() public override pure returns (bytes32) {\r\n        return \"Test Test\";\r\n    }\r\n\r\n    function addFunds() external override payable{\r\n        // funders.push(msg.sender);\r\n        //uint index = numOfFunders++;\r\n        //funders[index] = msg.sender;\r\n\r\n        address funder = msg.sender;\r\n        test3();\r\n\r\n        if (!funders[funder]) {\r\n            uint index = numOfFunders++;\r\n            funders[funder] = true;\r\n            lutFunders[index] = funder;\r\n        }\r\n        else {\r\n            funders[funder] = false;\r\n        }\r\n\r\n    }\r\n\r\n    function test1() external onlyOwner {\r\n        //only admin can access\r\n    }\r\n\r\n    function test2() external onlyOwner {\r\n        //only admin can access\r\n    }\r\n\r\n    function withdraw(uint withdrawAmount) override external limitWithdraw(withdrawAmount) {\r\n    //    if (withdrawAmount < 1000000000000000000) {\r\n    //        payable (msg.sender).transfer(withdrawAmount);\r\n    //    }\r\n        //require(withdrawAmount <=100000000000000000, \"Cannot withdraw more than 0.1 ether\");\r\n        payable(msg.sender).transfer(withdrawAmount);\r\n    }\r\n\r\n    function getAllFunders() external view returns(address[] memory) {\r\n        address[] memory _funders = new address[](numOfFunders);\r\n\r\n        for (uint i = 0; i< numOfFunders; i++) {\r\n            //_funders[i] = funders[i];\r\n            _funders[i] = lutFunders[i];\r\n        }\r\n\r\n        return _funders;\r\n\r\n\r\n    }\r\n\r\n    // function getAllFunders() public view returns (address[] memory) {\r\n    //     return funders;\r\n    // }\r\n\r\n    function getFunderAtIndex(uint8 index) external view returns(address) {\r\n        // address[] memory _funders = getAllFunders();\r\n        //return funders[index];\r\n        return lutFunders[index];\r\n    }\r\n\r\n\r\n   \r\n}\r\n\r\n //const instance = await Faucet.deployed()\r\n \r\n //instance.addFunds({from: accounts[0], value: \"2000000000000000000\"})\r\n //instance.addFunds({from: accounts[1], value: \"2000000000000000000\"})\r\n \r\n //instance.withdraw(\"100000000000000000\", {from: accounts[1]})\r\n \r\n //instance.getFunderAtIndex(0) \r\n //instance.getAllFunders()\r\n //instance.\r\n\r\n\r\n\r\n\r\n\r\n\r\n    // private -> cam be accesible only within the smart contract\r\n    // internal -> can be accessible within smart contract and also derived smart contract\r\n\r\n    //this is a special function\r\n    //it's called when you make a transection that doesn't specify\r\n    //function name to call\r\n\r\n    //External function are part of the contract interface\r\n    //Which means they can be called via contracts and other transection\r\n\r\n\r\n\r\n    // pure , view - read-only call, no gass free\r\n    // view - it indicates that the function will not alter the storage state in any way\r\n    // pure - even more strict, indicating that it won't even read the storage state\r\n\r\n    // Transaction (can generate state changes) and require gas fee\r\n    //read-only call, no gass free\r\n\r\n    // to talk to the node on the network you can make JSON-RPC http calls",
  "sourcePath": "C:\\Users\\FLOKSONG\\Desktop\\blockchain\\projectone\\contracts\\FaucetContract.sol",
  "compiler": {
    "name": "solc",
    "version": "0.8.4+commit.c7e474f2.Emscripten.clang"
  },
  "schemaVersion": "3.4.4",
  "updatedAt": "2022-01-05T12:17:09.400Z",
  "networkType": "ethereum",
  "devdoc": {
    "kind": "dev",
    "methods": {},
    "version": 1
  },
  "userdoc": {
    "kind": "user",
    "methods": {},
    "version": 1
  }
}